:020000040800F2
:10000000280B0020AD020008B5020008B702000866
:10001000B9020008BB020008BD0200080000000091
:10002000000000000000000000000000BF02000807
:10003000C102000800000000C3020008C502000859
:10004000C7020008C7020008C7020008C70200086C
:10005000C7020008C7020008C7020008C70200085C
:10006000C7020008C7020008C7020008C70200084C
:10007000C7020008C7020008C7020008C70200083C
:10008000C7020008C7020008C7020008C70200082C
:10009000C7020008C7020008C7020008C70200081C
:1000A000C7020008C7020008C7020008C70200080C
:1000B000C7020008C7020008C7020008C7020008FC
:1000C000C7020008C7020008C7020008C7020008EC
:1000D000C7020008C7020008C7020008C7020008DC
:1000E000C7020008C7020008C7020008C7020008CC
:1000F000C7020008C7020008C7020008C7020008BC
:10010000C7020008C7020008C7020008C7020008AB
:10011000C7020008C7020008C7020008C70200089B
:10012000C7020008C7020008C7020008C70200088B
:10013000C7020008C7020008C7020008C70200087B
:10014000C7020008C7020008C7020008C70200086B
:10015000C7020008C702000800000000C70200082C
:10016000C7020008C70200080000000000000000ED
:10017000C7020008C7020008C7020008000000000C
:1001800000000000C7020008C7020008C7020008FC
:10019000C70200080000000000000000000000008E
:1001A000000000000000000000000000C70200087E
:1001B000C702000800000000C7020008000000009D
:1001C000000000000000000000000000000000002F
:1001D0000000000000000000C7020008C70200087D
:1001E000C7020008C7020008C7020008C7020008CB
:1001F000C7020008C7020008C7020008C7020008BB
:10020000C7020008C7020008C702000800F002F891
:1002100000F03CF80AA090E8000C82448344AAF164
:100220000107DA4501D100F031F8AFF2090EBAE862
:100230000F0013F0010F18BFFB1A43F0010318471A
:10024000F41A0000141B0000103A24BF78C878C1CB
:10025000FAD8520724BF30C830C144BF04680C60CC
:10026000704700000023002400250026103A28BF14
:1002700078C1FBD8520728BF30C148BF0B60704718
:100280001FB501F035FD1FBD10B510BD00F031F8F0
:100290001146FFF7F5FF01F0FBFA00F04FF803B449
:1002A000FFF7F2FF03BC00F057F800000948804751
:1002B00009480047FEE7FEE7FEE7FEE7FEE7FEE748
:1002C000FEE7FEE7FEE7FEE704480549054A064B60
:1002D00070470000D91300080D020008280500200F
:1002E000280B0020280700202807002070477047AF
:1002F0007047754600F02CF8AE4605006946534637
:1003000020F00700854618B020B5FFF7DDFFBDE8F7
:1003100020404FF000064FF000074FF000084FF06C
:10032000000BAC46ACE8C009ACE8C009ACE8C009B9
:10033000ACE8C00921F007018D46704710B50446AE
:10034000AFF300802046BDE81040FFF7A8BF0000D3
:10035000004870470800002001491820ABBEFEE7A6
:10036000260002007047032A40F2308010F0030C90
:1003700000F0158011F8013BBCF1020F624498BFF8
:1003800011F801CB00F8013B38BF11F8013BA2F195
:10039000040298BF00F801CB38BF00F8013B11F010
:1003A000030300F02580083AC0F0088051F8043BB0
:1003B000083A51F804CBA0E80810F5E7121D5CBF1D
:1003C00051F8043B40F8043BAFF30080D20724BF50
:1003D00011F8013B11F801CB48BF11F8012B24BFE4
:1003E00000F8013B00F801CB48BF00F8012B704733
:1003F00010B5203AC0F00B80B1E81850A0E81850B2
:10040000B1E81850A0E81850203ABFF4F5AF5FEA01
:10041000027C24BFB1E81850A0E8185044BF18C9A6
:1004200018C0BDE810405FEA827C24BF51F8043B4D
:1004300040F8043B08BF7047D20728BF31F8023BA1
:1004400048BF11F8012B28BF20F8023B48BF00F835
:10045000012B70472DE9F04F81B040F2680300EBAB
:100460004000C2F2000303EBC004E06A9146022898
:100470000D460BD0012840D0002849D1264656F819
:10048000247F7068B8426AD9F9436BE054F8247F3E
:10049000201DA4F1040AA046A4F1080B4C464FF01D
:1004A0000009009020E000BFDAF80000FA43114490
:1004B0000144C61BB14238BF0E46DBF80000A6421D
:1004C00028BF2646384429463246FFF74CFFDAF863
:1004D0000000F119A41B0F1AB144354418BF0F4690
:1004E000002CC8F8007061D000980168B942DBD9CF
:1004F000FA43DAF800001144DBE7A2465AF8247FF9
:10050000DAF80410B94206D9FA43206A114406E029
:100510004FF000094AE0206AFA431144014449457A
:1005200038BF8946C61B54F81C0FB145384408D261
:1005300029464A46FFF717FF09EB0700CAF80000F3
:1005400034E029463246FFF70EFFA9EB0608206883
:10055000A9194246FFF707FFCAF8008026E0216A82
:10056000FA4310440844484502D24FF000091DE008
:1005700054F81C0F61683844A1EB070ACA4507D933
:1005800029464A46FFF7EFFE07EB090030600DE011
:1005900029465246FFF7E7FEA9EB0A08206805EB5B
:1005A0000A014246FFF7DFFEC6F80080484601B068
:1005B000BDE8F08F82B02DE9F04F9DB026A80790DE
:1005C00008A841F60A5145F2524A18904020C0F658
:1005D000000140F2680BC0F2540A19900026C2F2E2
:1005E000000B00200D46CDE926231C96CDE91A66A6
:1005F0000BE02B46CDF8048000F038FFD3E11B98C8
:100600002946B0F1FF3F40F3E18615F8013B252B69
:100610005ED0002B00F09086DDE91920411C91424C
:1006200007D8189A13541B98199A01301B90084642
:100630001A919042E3D19BF80010189B1C98B1BB13
:100640000321CBF82860CBE9041141F62B51C0F609
:100650000001CBF81810CBF8601040F21051C2F234
:10066000000140F21017CBF864101021C2F200070D
:10067000CBF8681044F24751CBF81C704FF48067F8
:10068000C0F25201CBE90876CBF82C60CBF86C6055
:10069000CBF8031044F25351C4F24771CBF8001069
:1006A0002021CBE91C66CBF807A08BF80610EFF3EE
:1006B00011844FF0200181F311881946FFF7CAFE1B
:1006C00084F311881A99884240F080861A9696E73A
:1006D00001F104094FF0000819F8031CA1F12303EC
:1006E0000D2B00F25D800222DFE803F0075A5A5A10
:1006F0005A5A5A5A0A5A0C5A5A0D082203E000BF95
:10070000042200E0012219F8021C48EA0208A1F1C3
:1007100023030D2B00F247800222DFE803F0074499
:1007200044444444444409440B44440C082202E039
:10073000042200E0012219F8011C48EA0208A1F194
:1007400023030D2B32D80222DFE803F007303030CC
:10075000303030300A300C30300D082203E000BF5A
:10076000042200E0012299F8001048EA0208A1F1F1
:1007700023030D2B1CD80222DFE803F00E1A1A1AED
:100780001A1A1A1A101A0C1A1A0748EA020809F15A
:100790000409A1E70122F8E70822F6E70422F4E7BA
:1007A000A9F1030904E0A9F1020901E0A9F1010995
:1007B000A1F13002092A05D900222E2934D00025C2
:1007C0008EE000BF002200BF02EB820201EB42027A
:1007D00099F80110303AA1F130030A2B65D202EBEF
:1007E000820201EB420299F80210303AA1F1300383
:1007F000092B5FD899F8033002EB820201EB42012A
:10080000A3F13002092AA1F1300259D819F8041FC6
:1008100002EB820203EB4202A1F13003092BA2F1A9
:100820003002D1D92E29CAD14B4613F8011FA1F1AC
:100830003007092F02D90025994651E009F1050337
:10084000002500BF05EB850701EB470713F8031CE4
:10085000A7F13005A1F130060A2E37D205EB850746
:1008600001EB470713F8021CA7F13005A1F1300690
:10087000092E2ED805EB850701EB470713F8011C5D
:10088000A7F13005A1F13006092E25D805EB850723
:1008900001EB470713F8041BA7F13005A1F130065F
:1008A000092ECFD9A3F1040918E009F101092E2975
:1008B000BAD084E709F102092E297FF480AFB3E7AB
:1008C00009F1030919462E29AED078E7A3F10309EF
:1008D00004E0A3F1020901E0A3F10109002600BF31
:1008E0002539532900F25F80DFE811F0AC015D008B
:1008F0005D005D005D005D005D005D005D005D0010
:100900005D005D005D005D005D005D005D005D00FF
:100910005D005D005D005D005D005D005D005D00EF
:100920005D005D005D005D005D005D005D005D00DF
:100930005D005D005D005D005D005D005D005D00CF
:100940005D005D005D005D005D005D005D005D00BF
:100950005D0054005D005D005D005D005D005D00B8
:100960005D005D005D005D000A026D025D005D00DE
:100970005D0060005D005D005D0060005D005D0089
:100980005D009E025D005D00AC025D001E035D0027
:100990005D005400FFE70798011D07910168009270
:1009A00018A8102225E609F1010528E699F801109A
:1009B0002539532900F21D81DFE811F018011B01D0
:1009C0001B011B011B011B011B011B011B011B0147
:1009D0001B011B011B011B011B011B011B011B0137
:1009E0001B011B011B011B011B011B011B011B0127
:1009F0001B011B011B011B011B011B011B011B0117
:100A00001B011B011B011B011B011B011B011B0106
:100A10001B011B011B011B011B011B011B011B01F6
:100A20001B0154001B011B011B011B011B011B01AE
:100A30001B011B011B011B011E0121011B011B01CD
:100A40001B0157001B011B011B0157001B011B0150
:100A50001B0124011B011B0127011B012A011B0192
:100A60001B01540009F1010995E799F80210253995
:100A7000532900F2D380DFE811F0CE00D100D1007D
:100A8000D100D100D100D100D100D100D100D100DE
:100A9000D100D100D100D100D100D100D100D100CE
:100AA000D100D100D100D100D100D100D100D100BE
:100AB000D100D100D100D100D100D100D100D100AE
:100AC000D100D100D100D100D100D100D100D1009E
:100AD000D100D100D100D100D100D100D100D1008E
:100AE000B300D100D100D100D100D100D100D1009C
:100AF000D100D100D100D400D700D100D100D10065
:100B00005400D100D100D1005400D100D100D10057
:100B1000DA00D100D100DD00D100E000D100D10029
:100B2000B30099F803102539532900F2E480DFE877
:100B300011F08700E200E200E200E200E200E200E1
:100B4000E200E200E200E200E200E200E200E20095
:100B5000E200E200E200E200E200E200E200E20085
:100B6000E200E200E200E200E200E200E200E20075
:100B7000E200E200E200E200E200E200E200E20065
:100B8000E200E200E200E200E200E200E200E20055
:100B9000E200E200E200E2005A00E200E200E200CD
:100BA000E200E200E200E200E200E200E200E50032
:100BB0004801E200E200E2005400E200E200E2004C
:100BC0005400E200E200E2007901E200E200870165
:100BD000E200F901E200E2005A0019F8041F7FE682
:100BE00009F10209D7E609F10309D4E609F101097F
:100BF00028E009F10109D6E609F1010980E009F1CF
:100C00000109E0E009F101090EE109F1010919E129
:100C100009F1010988E109F1020913E009F102096A
:100C2000C1E609F102096BE009F10209CBE009F123
:100C30000209F9E009F1020904E109F1020973E18D
:100C400009F10309DDE91920411C914208D8189ADD
:100C5000252313541B98199A01301B9008461A91AA
:100C600090427FF4A0AE9BF80010189B1C98B1BB7B
:100C70000321CBF82860CBE9041141F62B51C0F6D3
:100C80000001CBF81810CBF8601040F21051C2F2FE
:100C9000000140F21017CBF864101021C2F20007D7
:100CA000CBF8681044F24751CBF81C704FF48067C2
:100CB000C0F25201CBE90876CBF82C60CBF86C601F
:100CC000CBF8031044F25351C4F24771CBF8001033
:100CD0002021CBE91C66CBF807A08BF80610EFF3B8
:100CE00011844FF0200181F311881946FFF7B2FB00
:100CF00084F311885FE009F1030954E609F103095F
:100D0000DDE91920079B411C1F1D9142079708D858
:100D10001A68189B1A541B98199A01301B900846A0
:100D20001A9190427FF43FAE9BF80010189B1C98DC
:100D3000B1BB0321CBF82860CBE9041141F62B515C
:100D4000C0F60001CBF81810CBF8601040F210513B
:100D5000C2F2000140F21017CBF864101021C2F269
:100D60000007CBF8681044F24751CBF81C704FF4E1
:100D70008067C0F25201CBE90876CBF82C60CBF843
:100D80006C60CBF8031044F25351C4F24771CBF8B6
:100D900000102021CBE91C66CBF807A08BF80610C9
:100DA000EFF311854FF0200181F311881946FFF709
:100DB00051FB85F311881A99884240F0AF801A964A
:100DC000F1E509F1030907990B1D0793096800294B
:100DD000C1F10003069148BF19460A2905931FD3A4
:100DE000042700BF632940F2A880B1F57A7FC0F0E4
:100DF000A68042F210739942C0F0A28041F259736A
:100E0000CDF2B713A1FB033648F29F63C0F2010392
:100E100099424FEA563107F10407E3D8033F8FE0C8
:100E200001278DE009F1030907981022011D0791A0
:100E300001680820009018A808230196FFF7DCBB82
:100E400009F1030907990A1D07920D6806E000BF22
:100E5000B0F1FF3F05F101057FF7A5AD2F78002F19
:100E60003FF4A1ADDDE919214B1C934207D8189836
:100E700047541B98199A013019461A931B909142B6
:100E8000E6D19BF80010189B1C98B1BB0321CBF84E
:100E90002860CBE9041141F62B51C0F60001CBF8D4
:100EA0001810CBF8601040F21051C2F2000140F26D
:100EB0001017CBF864101021C2F20007CBF86810AD
:100EC00044F24751CBF81C704FF48067C0F25201D6
:100ED000CBE90876CBF82C60CBF86C60CBF803102C
:100EE00044F25351C4F24771CBF800102021CBE9F2
:100EF0001C66CBF807A08BF80610EFF311844FF0B7
:100F0000200181F311881946FFF7A4FA84F31188B0
:100F10001A99884202D11B981A9699E74FF0FF3030
:100F20001B9040E509F103090798011D079101682D
:100F3000009218A80A22FFF75CBB023F00E0013FC5
:100F4000AF4238BF2F465AB1069908F00403002972
:100F50004FF0000148BF012141EA9301561A00E019
:100F6000002618F00201049101D0002D75D05FEA2F
:100F7000C87172D1002E70D03946BE4238BF31469A
:100F80000136039115E000BFEFF311844FF020010B
:100F900081F311881946FFF75DFA84F311881A99D5
:100FA000884240F0B7811B9800211A91002800F177
:100FB000BE81013EB7424FD2DDE919214B1C93425D
:100FC00008D81898202242541B98199A01301946C3
:100FD0001A931B909142E9D19BF80010189B1C9822
:100FE0000029D1D14FF0000C0321CBF828C0CBE968
:100FF000041141F62B51C0F60001CBF81810CBF8C4
:10100000601040F21051C2F2000140F21014CBF80F
:1010100064101021C2F20004CBF8681044F247516A
:10102000CBF81C404FF48064C0F25201CBE9084C6D
:10103000CBF82CC0CBF86CC0CBF8031044F2535162
:10104000C4F24771CBF800102021CBE91CCCCBF8BF
:1010500007A08BF8061097E7039E0698B0F1FF3FB4
:101060006BDD5FEA487065D5DDE91920411C9142CE
:1010700008D8189A2B2313541B98199A01301B90E7
:1010800008461A91904255D19BF80010189B1C9865
:10109000C1BB4FF0000C0321CBF828C0CBE90411F1
:1010A00041F62B51C0F60001CBF81810CBF86010B8
:1010B00040F21051C2F2000140F21014CBF864105B
:1010C0001021C2F20004CBF8681044F24751CBF86B
:1010D0001C404FF48064C0F25201CBE9084CCBF8BD
:1010E0002CC0CBF86CC0CBF8031044F25351C4F2BF
:1010F0004771CBF800102021CBE91CCCCBF807A01E
:101100008BF80610EFF3118A4FF0200181F311885C
:101110001946FFF79FF98AF311881A99884240F01F
:10112000FF8000201A90069845F2524AC0F2540AF5
:10113000059063E00698059060E0DDE91920411C08
:10114000914208D8189A2D2313541B98199A0130EC
:101150001B9008461A91904250D19BF80010189BA2
:101160001C98C1BB4FF0000C0321CBF828C0CBE981
:10117000041141F62B51C0F60001CBF81810CBF842
:10118000601040F21051C2F2000140F21014CBF88E
:1011900064101021C2F20004CBF8681044F24751E9
:1011A000CBF81C404FF48064C0F25201CBE9084CEC
:1011B000CBF82CC0CBF86CC0CBF8031044F25351E1
:1011C000C4F24771CBF800102021CBE91CCCCBF83E
:1011D00007A08BF806105446EFF3118A4FF0200158
:1011E00081F311881946FFF735F98AF311881A99A6
:1011F000884240F0888000201A90A2461B98002860
:1012000000F19580049959B9059918A80A222B462E
:101210000096CDF8048000F029F90026FFF7C3BB43
:1012200008F001012943EFD1002EEDD03946BE422E
:1012300038BF31460136069102E000BF002876D45F
:10124000013EB74276D2DDE919214B1C934208D802
:101250001898302242541B98199A013019461A9353
:101260001B909142EAD19BF80010189B1C98C1BBBF
:101270004FF0000C0321CBF828C0CBE9041141F654
:101280002B51C0F60001CBF81810CBF8601040F2DB
:101290001051C2F2000140F21014CBF8641010217A
:1012A000C2F20004CBF8681044F24751CBF81C405E
:1012B0004FF48064C0F25201CBE9084CCBF82CC04B
:1012C000CBF86CC0CBF8031044F25351C4F2477111
:1012D000CBF800102021CBE91CCCCBF807A08BF871
:1012E0000610EFF311844FF0200181F311881946A5
:1012F000FFF7B0F884F311881A9988420AD11B9835
:1013000000211A919AE74FF0FF301B90A246002669
:10131000FFF749BB4FF0FF301B900026FFF743BBA0
:101320004FF0FF3045F2524A1B90C0F2540A00269B
:10133000FFF739BB069E67E7012847DB1A9A002AA8
:1013400044D09BF80000A8BB03200023CBF8283032
:10135000CBE9040040F210104FF48061C2F20000AB
:101360000BF11C0C8CE80B0040F210511020C2F263
:10137000000141F62B57CBE9191044F24750C0F653
:101380000007C0F25200CBF81870CBF82C30CBF825
:101390006070CBF86C30CBF8030044F25350C4F2C9
:1013A0004770CBF800002020CBE91C33CBF807A016
:1013B0008BF80600EFF311844FF0200181F31188C0
:1013C00008A90020FFF746F884F311881DB0BDE896
:1013D000F04F02B0704700004EF68850CEF2000089
:1013E000026843F6000142F47002C4F20201026096
:1013F0000A6842F001020A600A6892075FBF0A6841
:101400005FEA82720A685FEA827202D40A6892070F
:10141000F2D58A6822F003028A6000BF8A6812F05F
:101420000C0F0BD08A6812F00C0F07D08A6812F0EC
:101430000C0F03D08A6812F00C0FEFD10A684FF638
:10144000FF73CFF6F2631A4043F202030A600022F0
:10145000C0F203038A604B60C1F8A0204FF41F0262
:10146000CA604FF0006140F8801C70472DE9F04FD2
:1014700085B098460E46DDE90E3115469642044683
:1014800002D24FF0010A1DE04FF0020A304600BFC1
:10149000B0FBF5F0A84215D3B0FBF5F0A8420CD391
:1014A000B0FBF5F0A8420BD3B0FBF5F00AF1040A4B
:1014B000A842EDD2AAF1010A04E00AF1010A01E012
:1014C0000AF1020AC24540F2680738BFC24601F07D
:1014D0000100002BC2F20007CDF810A0029000F02E
:1014E0009180002840F08E8088074FF020014FF057
:1014F000200048BF3021B8F1000F18BF0146504608
:1015000003919A4588BF1846019014E0EFF3118BC0
:101510004FF0200181F311881946FEF79BFF8BF3F2
:101520001188A168884269D100204B46A060E0681C
:10153000B0F1FF3F66DD9A455ED2D4E90120411C3F
:1015400091420CD82268039F1754E06840F2680764
:1015500062680130C2F20007E0600846A160904274
:10156000A3F10103E3D13978994623682069002962
:10157000CCD141F62B5C4FF0000E0321C0F6000CDD
:10158000C7F828E0C7E90411C7F818C040F21017DF
:1015900040F26801C2F20007C2F20001CF6140F2DE
:1015A0006807C2F200074FF48061C7E9081E40F2E5
:1015B0001051C2F2000179661021B96645F252411C
:1015C000C0F25401DDF810A0C7F82CE0C7F860C0E5
:1015D000C7F86CE0C7F8071044F24751C0F2520157
:1015E000C7F8031044F25351C4F247713960202107
:1015F000C7E91CEEB97189E7019B03E04FF0FF30AA
:10160000E0604B46E068002800F1C0804FF0010B1D
:101610000393B8F1010F15D9A8F1010101290BFBC2
:1016200005FB17D9A8F1020101290BFB05FB29D9FC
:10163000A8F1030101290BFB05FB25D9A8F104083A
:1016400019E000BFB6FBFBF1A9421FD30BFB05FB62
:1016500001E000BF8846B6FBFBF1A94216D30BFBA5
:1016600005FBB6FBFBF1A94210D30BFB05FBB6FB58
:10167000FBF1A9420AD30BFB05FBB8F1010FE1D93D
:10168000CAE700BF8846ECE78846F0E7A16800BFDC
:101690006268B6FBFBF84B1C93420AD878A010F89E
:1016A000080022685054E068626801301946A3605F
:1016B000E060914257D1397823682069002941D1EF
:1016C00041F62B5C4FF0000E0321C0F6000CC7F86A
:1016D00028E0C7E90411C7F818C040F2101740F21B
:1016E0006801C2F20007C2F20001CF6140F2680750
:1016F000C2F200074FF48061C7E9081E40F21051A2
:10170000C2F2000179661021B96645F25241C0F279
:101710005401DDF810A0C7F82CE0C7F860C0C7F886
:101720006CE0C7F8071044F24751C0F25201C7F805
:10173000031044F25351C4F2477139602021C7E9C4
:101740001CEEB971EFF311894FF0200181F311887C
:101750001946FEF77FFE89F31188A16888420CD1F3
:10176000E0680021A16000280AD4BBFBF5F208FB69
:101770001B66AB4593468BD202E04FF0FF30E06032
:10178000029A002A039A18BF002A02D105B0BDE8C8
:10179000F08F551C4FF000094FF0200803E000BF08
:1017A000B0F1FF3FF2DD013DAA45EFD262684B1C6C
:1017B000934208D8206800F80180E0686268013030
:1017C0001946A360E0609142EAD139782368206924
:1017D000E9BB0321C7F82890C7E9041141F62B5152
:1017E000C0F60001B96140F2101740F26806C2F27B
:1017F0000007C2F20006F76140F26807C2F2000774
:10180000396640F21051C2F2000179661021B966C2
:1018100045F252414FF48066C0F25401DDF810A049
:10182000C7E90869C7F82C90C7F86C90C7F807108B
:1018300044F24751C0F25201C7F8031044F2535129
:10184000C4F24771C7E91C99396087F80680EFF345
:10185000118B4FF0200181F311881946FEF7FAFD34
:101860008BF31188A168884203D1E0680021A16050
:1018700096E74FF0FF30E06005B0BDE8F08F00BFA5
:1018800030313233343536373839414243444546B6
:1018900082B043F60009C4F20209D9F8000040F012
:1018A0000100C9F8000000BFD9F8000080075FBF41
:1018B000D9F800005FEA8070D9F800005FEA807014
:1018C00003D4D9F800008007EED5D9F8080020F03D
:1018D0000300C9F8080000BFD9F8080010F00C0F89
:1018E0000ED0D9F8080010F00C0F09D0D9F8080074
:1018F00010F00C0F04D0D9F8080010F00C0FEBD149
:10190000D9F800004FF6FF71CFF6F261084043F2BC
:101910000201C9F800000020C0F20301C9F8080064
:10192000C9F80410C9F8A0004FF41F00C9F80C0052
:10193000D9F84000042240F08050C9F8400047F236
:101940001000C4F20000016862F302010160D9F8DE
:10195000600442F6FD7120F00300C9F86004D9F874
:10196000000042F6FC7240F48030C9F8000042F6F4
:10197000FE7003E0D9F800309B0321D4002300BFA0
:10198000D9F800701E0B022EF4D817F40037F1D1ED
:10199000D9F800708342EDD817F40037EAD1D9F8AE
:1019A00000708B42E6D817F40037E3D1D9F8007005
:1019B0009342DFD817F4003703F10403E0D0D9E7EE
:1019C000D9F80400502140F48000C9F80400D9F887
:1019D000040061F38E10C9F80400D9F80400012155
:1019E00061F30300C9F80400D9F80400022161F38F
:1019F0001240C9F80400D9F8000040F08070C9F81E
:101A0000000000BFD9F8000080015FBFD9F80000D6
:101A10005FEA8010D9F800005FEA801003D4D9F89B
:101A200000008001EED5D9F80800042120F0F00074
:101A3000C9F80800D9F8080061F34F30C9F8080068
:101A4000D9F8080061F38C20C9F80800D9F8A4007F
:101A5000022140F03000C9F8A400D9F8080061F371
:101A60000100C9F8080000BFD9F8080000F00C0018
:101A7000082811D0D9F8080000F00C0008280BD075
:101A8000D9F8080000F00C00082805D0D9F80800A3
:101A900000F00C000828E7D1D9F8A40020F03000AD
:101AA000C9F8A400D9F80800C0F3810141F2002070
:101AB0000229C0F27A000DD009BBD9F8A010490460
:101AC0001DD5D9F8A010C90444BF46F60040C0F2A5
:101AD000DC2014E0D9F80410D9F80410D9F8042057
:101AE000D9F8043078A7C3F30243FB5CC1F3881133
:101AF00002F00F02484302FB03F1B0FBF1F040F2A9
:101B00000008C2F20008C8F80000D9F8081070A256
:101B1000C1F30311515C41F62B52C840C8F80000D4
:101B200040F26800C2F2000003210026C0F6000265
:101B300040F210138662C0E9041100F11801C2F2EC
:101B400000034FF480656CC140F21051C2F20001F5
:101B5000C0E9182145F252411023C0F25401C66277
:101B60008366C666C0F8071044F24751C0F25201BE
:101B7000C0F8031044F25351C4F2477101602021B0
:101B8000C0E91C668171EFF311854FF0200181F3EC
:101B900011884EF2100740F6000451A100200622E1
:101BA000CEF20007C4F20204FEF754FC85F311885C
:101BB00038684DF6836A40F004003860D8F80000B9
:101BC000C4F21B3AA0FB0A01880C40F22051C2F279
:101BD0000001086008684FF47A7140F224554843C8
:101BE000C2F200052860D9F830000FF2FC0B40F07B
:101BF0000400C9F83000206841F6335920F0030092
:101C000020602068C0F6000940F001002060606894
:101C10004FF0320820F00100606060686060A068EA
:101C200020F00300A060A06840F00100A060E06820
:101C300020F00300E060E068E0600120A06100BFE8
:101C400040F20000C2F2000000684A46A0FB0A0110
:101C5000880C5B460090FEF7ADFC606980F00100E7
:101C600060614FF4FA7006E0396821F001013960D3
:101C70000104BE60E4D081B2332905D3296832382B
:101C800001FB08F1796003E0286848437860002090
:101C9000BE60396841F00101396000BF396801F068
:101CA00001110129E0D1396801F001110129DBD1CD
:101CB000396801F001110129D6D1396801F001110B
:101CC0000129EBD0D0E700BF01020408102000007A
:101CD00000000000000000000102030406070809DC
:101CE00020201B5B324A000044454255473E2000FD
:101CF000F1EE100A4FF6FF71C0F2C03120EA010088
:101D000040F04070E1EE100A704725732573486576
:101D10006C6C6F20576F726C642120436F7265206A
:101D20005B25645D204D487A0D0A005465726D692B
:101D30006E616C00581D00080000002008000000C3
:101D400048020008601D000808000020200B000069
:101D5000640200080000000000127A000000000089
:040000050800020DE0
:00000001FF
